:020000040020DA
:108000000080002031812000D3812000A371220054
:10801000D7812000D9812000DB812000DD81200074
:10802000000000000000000000000000DF812000D0
:10803000E181200000000000E38120007968210038
:1080400051682100BDAA2000776C22007F6C2200BD
:10805000876C22008F6C2200976C220051B921009E
:108060009F6C2200A76C2200AF6C2200B76C22002C
:10807000BF6C2200C76C2200CF6C2200D76C22009C
:10808000DF6C2200E76C2200EF6C2200F76C22000C
:10809000FF6C2200076D22000F6D2200176D220079
:1080A0001F6D2200276D22002F6D2200376D2200E8
:1080B0003F6D2200476D22004F6D220059C92000FC
:1080C00075C9200091C92000ADC92000576D22005C
:1080D0005F6D2200676D22006F6D2200776D2200B8
:1080E0007F6D2200876D22008F6D2200976D220028
:1080F0009F6D2200A76D2200E7812000E78120000C
:1081000000010000FFFEFFFF609822000030002009
:10811000D4030000609822000080002000000000CE
:10812000E03300207C2500000080002000000000DB
:1081300072B603461848194901600A6882F3088834
:10814000174880F30A8808B413F090FA01BC13F0C2
:1081500099FA0E4B07E003F10C049A685968186805
:1081600000F020F823460A4A9342F4D306E01C4666
:10817000596854F8080B00F023F82346054A934247
:10818000F5D362B60CF092FBFEE700BF0881200039
:10819000208120003081200008ED00E000802000D8
:1081A000007800200023934209D210B450F8044B09
:1081B00041F8044B04339342F8D310BC7047704726
:1081C000002303E0002240F8042B04338B42F9D350
:1081D0007047FEE7FEE7FEE7FEE7FEE7FEE7FEE7A5
:1081E000FEE7FEE7FEE7FEE790B589B000AF7860F6
:1081F0000B46FB701346BB700023FB764FF0000369
:10820000FB6107F110031946602003F06FF9034684
:10821000FB76FB7E002B3B69C3F313033B6107F145
:108220000C031946402003F061F90346FB76FB7E00
:10823000002BFB68C3F31303FB60FA683B69D31A96
:108240007B61FB78002B19D1786910F041FA2EA3DD
:10825000D3E9002310F0E0FB02460B461046194616
:108260002BA3D3E9002310F0F5F802460B46104685
:10827000194610F0B9FC0346FB6125E0264BFB6173
:10828000786910F0B7FD04462449F86910F0BEFE85
:1082900003461946204610F0B9FE0346FB61BB7841
:1082A000184610F0ABFD0346F969184610F0FAFDC8
:1082B00003461B49184610F0A9FE03461946F86903
:1082C00010F0E6FC0346FB61F86910F0B1FF0246CE
:1082D0007B681A607B681B68184610F08BFD0346AC
:1082E0001946F86910F09AFF0346002B04D07B680A
:1082F0001B685A1C7B681A60FB7E18462437BD46F3
:1083000090BD00BFAFF300801F85EB51B81E2B401E
:10831000E17A14AE47E122400000544200007A4462
:108320000000C842FFFFFFFFB0B58EB002AFF8609B
:108330007B600B46FB721346BB720023FB84002359
:108340007B6100237B82FB685B7C022B12D0FB7A73
:108350000C2B02D8BB7A0E2B02D940F22153BBE280
:10836000FB7A072B0FD8FB685B7C012B0BD140F20B
:108370002153B1E2FB7A082B02D8BB7A0E2B02D92B
:1083800040F22153A8E2FB685B6841F2E2420D2112
:10839000184615F033FA0346BB84BB8C002B01D082
:1083A000BB8C99E2E0233B76FB7A1B01DAB2BB7A05
:1083B00003F00F03DBB21343DBB27B76FB68586834
:1083C00007F1180207F11203019307F11403009358
:1083D0000223002115F0A6F90346FB85FB689B7C70
:1083E00087F82D3031E0FB685B7C012B18D1FB8DC9
:1083F000DBB2012B03D0FB8DDBB2112B0ED1FB685E
:108400005B6840F6B8320021184615F0D6FA0346EC
:10841000FB85FB8D002B03D0FB8D5DE2FB8D5BE2CA
:10842000FB68586807F1180207F11203019307F17E
:10843000140300930223002115F074F90346FB8511
:1084400097F82D30013B87F82D3097F82D30002B11
:1084500003D0FB8DDBB2002BC5D1FB8DDBB2002B33
:1084600040F0BB817B8ADAB27B691B789A4202D1E9
:108470007B8A002B02D140F206532DE27B697A8A77
:10848000194678680BF0C4FCFB685B7C032B06D0B4
:10849000FB6800221A72FB6800229A7205E0FB68F2
:1084A00001221A72FB68BA7A9A72FB6800225A7229
:1084B000FB680022DA72FB6804221A73FB68FA7AFE
:1084C0009A73FB6802225A73FB680022DA73FB6816
:1084D00000221A74002387F82C30012387F82D30EE
:1084E0007B8A012B40F2BA8097F82D307A681344CA
:1084F0001B7803F00F03DAB2FB685A73FB685B7CEE
:10850000022B07D0FB685B7B0C2B0AD9FB680C2283
:108510005A7306E0FB685B7B082B02D9FB680822D4
:108520005A7397F82D30013387F82D307B6801336B
:108530001B7803F01003002B21D097F82D309AB24E
:108540007B8A9A4202D340F20653C5E197F82D3058
:108550007A6813441B7803F00803002B03D0FB68F0
:108560000022DA7206E097F82D307A6813441A7800
:10857000FB68DA7297F82D30013387F82D307B686D
:1085800001331B7803F02003002B2DD097F82D30FA
:108590009AB27B8A9A4202D340F206539CE197F842
:1085A0002D307A6813441B7803F00F0387F82C30C2
:1085B00097F82C300F2B02D1002387F82C3097F836
:1085C0002D307A6813441B781B09DAB2FB681A73E2
:1085D000FB681B7B0F2B02D1FB6804221A7397F8F0
:1085E0002D30013387F82D307B6801331B7803F081
:1085F0004003002B32D097F82D309AB27B8A9A42F2
:1086000002D340F2065367E1FB685B7C012B25D067
:10861000FB685B7C032B0BD197F82D307A681344F1
:108620001B7803F00103002B02D0FB6801225A7271
:1086300097F82D307A6813441B7803F00203002B5F
:1086400006D1FB6800221A72FB6800229A7205E0CC
:10865000FB6801221A72FB68BA7A9A7297F82C307A
:10866000012202FA03F3184610F032F89CA3D3E972
:10867000002310F0A7F802460B461046194610F0EA
:10868000B3FA0346BB62FB685B7C032B1FD0B86A5E
:1086900010F040F804460D4697F82C30012202FAFB
:1086A00003F3184610F014F88FA3D3E9002310F059
:1086B00089F802460B46204629460FF0CDFE0246B9
:1086C0000B461046194610F08FFA0346BB62B86A93
:1086D00010F0AEFD03463B623B6AB3F5803F14D316
:1086E000FB6858683B6A824AA2FB03239B099BB242
:1086F00001339BB21A46012115F05FF90346BB8492
:10870000BB8C002B10D0BB8CE6E0FB685B683A6A40
:1087100092B20021184615F050F90346BB84BB8C79
:10872000002B01D0BB8CD7E0724BBB62FB681B7B7C
:108730001A4601239340184610F05CFB0346194685
:10874000B86A10F0AFFB0346BB62FB685B7C032B8F
:1087500006D16949B86A10F09DFA0346BB620FE082
:108760006649B86A10F096FA0346BB62FB685B7C08
:10877000012B05D16249B86A10F08CFA0346BB623E
:10878000B86A10F055FD0346FB61FB69B3F5803F05
:1087900014D3FB685868FB69554AA2FB03239B0965
:1087A0009BB201339BB21A460E2115F027F80346FF
:1087B000BB84BB8C002B7FD0BB8C8DE0FB685B68DF
:1087C000FA6992B20D21184615F018F80346BB84D9
:1087D000BB8C002B70D0BB8C7EE0FB685B7C012BDC
:1087E00001D1FB8D78E0FB8DDBB2012B0DD0FB8D31
:1087F000DBB2022B09D0FB8DDBB2052B05D0FB8D44
:10880000DBB2032B01D0FB8D66E0FB8DDBB2012BCD
:108810000ED0FB685B684FF4B5720021184615F066
:10882000CCF80346BB84BB8C002B01D0BB8C53E03F
:10883000C2233B760123FB84FB685868F98C07F15F
:10884000180207F11203019307F1140300930B467A
:10885000002114F067FF0346BB84BB8CDBB2002B06
:1088600007D17B8A012B04D17B691A783B7E9A421F
:1088700022D0FB685B6840F24C420D21184614F090
:10888000BDFF0346BB84BB8C002B01D0BB8C23E017
:1088900050233B7600237B76FB68586807F118026B
:1088A00007F11203019307F114030093022300213F
:1088B00014F038FF0346BB84FB8D002B0BD0FB8DDF
:1088C00003F47F43002B06D1FB8DDBB29BB243F454
:1088D000A0639BB200E0FB8D18463037BD46B0BDAB
:1088E0009D102ED109E17240EB18C5B98E513C4064
:1088F000D34D62104F0897430000704200806345DB
:1089000000007A44FFFFFFFF80B590B002AFF8602F
:10891000B96011461A460B46FB711346BB71002322
:10892000BB610023FB82002387F835300023FB6204
:108930000023BB624FF000033B63FB790C2B05D097
:10894000FB790D2B02D040F2214391E2BB790C2B35
:1089500007D897F84430032B03D897F84830032BF7
:1089600002D940F2214383E2BB79072B07D8FB6889
:1089700093F82830012B02D140F2214378E21D23E5
:108980003B77BB68591C07F11C03013304221846CE
:108990000BF03EFAFB689B7D87F8213097F9483051
:1089A0009B015AB297F944301B015BB213435AB290
:1089B00097F9063013435BB2DBB287F82230FB68CD
:1089C00093F82830012B08D1BB680A331B7803F0D9
:1089D0000103DBB287F8233007E0BB680A331B785A
:1089E00003F00703DBB287F82330BB680B331B7837
:1089F00003F00103002B06D097F840300E2B05D969
:108A000040F2214334E2002387F8403097F84030A9
:108A100087F82430BB680B331B781B09DAB2FB687C
:108A20005A74FB685B7C0F2B02D1FB6804225A74DA
:108A3000FB685B7C1A460123934018460FF048FE02
:108A40009DA3D3E900230FF0BDFE02460B4610465E
:108A5000194610F0C9F803463B63FB6893F82830C9
:108A6000032B06D19649386B10F014F903463B638B
:108A700010E09449386B10F00DF903463B63FB6836
:108A800093F82830012B05D18F49386B10F002F98B
:108A900003463B63386B10F0CBFB0346BB62FB79AC
:108AA0000D2B0ED1FB685B6841F2FF220D211846A9
:108AB00014F0A4FE0346FB86FB8E002B29D0FB8E10
:108AC000D6E1BB6AB3F5803F14D3FB685868BB6A34
:108AD0007E4AA2FB03239B099BB201339BB21A4639
:108AE0000E2114F08BFE0346FB86FB8E002B10D06C
:108AF000FB8EBDE1FB685B68BA6A92B20D21184635
:108B000014F07CFE0346FB86FB8E002B01D0FB8E0F
:108B1000AEE10023FB82FB68586807F11C0207F1F5
:108B20001603019307F11803009309234FF4004142
:108B300014F0F8FD0346FB86FB8E002B01D0FB8E64
:108B400096E1FB685868FB689A69FB68D98B07F166
:108B50001603019307F1180300930B464FF480416D
:108B600014F0E0FD0346FB86FB6893F82A3087F893
:108B700035304DE0FB6893F82830012B18D1FB8E7F
:108B8000DBB2012B03D0FB8EDBB2112B0ED1FB68C5
:108B90005B6840F6B8320021184614F00EFF034619
:108BA000FB86FB8E002B03D0FB8E61E1FB8E5FE129
:108BB0000023FB82FB68586807F11C0207F11603CB
:108BC000019307F11803009309234FF4004114F0B7
:108BD000A9FD0346FB86FB8E002B01D0FB8E47E1EF
:108BE000FB685868FB689A69FB68D98B07F1160324
:108BF000019307F1180300930B464FF4804114F0E2
:108C000091FD0346FB8697F83530013B87F83530F8
:108C100097F83530002B03D0FB8EDBB2002BA9D1A7
:108C2000FB8E002B01D0FB8E22E1FB8A002B02D1B0
:108C300040F206431CE1BB680B331B7803F00103D1
:108C4000002B0AD0BB691B7803F00F0297F8403065
:108C50009A4202D040F206430AE1FB6893F82830BA
:108C6000032B0FD0BB680B331B7803F00103002BE1
:108C700008D1BB691B7803F00F03002B02D040F230
:108C80000643F5E0BB691B781B09DAB2FB6C1A706E
:108C9000FB8A012B31D9FB8A013B9AB2FB68DA844B
:108CA000FB68DB8B002B13D1FB680022DA8440F2D7
:108CB0000643DDE0AFF300809D102ED109E1724044
:108CC00000007C4200A0664500007A44D34D62104B
:108CD000FB68DA8CFB689B8C9A4205D9FB68002202
:108CE000DA8440F20443C3E0FB68186ABB69591C8C
:108CF000FB68DB8C1A460BF08BF8FB6893F8283086
:108D0000032B06D0FB6800229A73FB680022DA73FB
:108D100011E0BB680B331B7803F00103DAB2FB6888
:108D20009A73BB680B331B785B08DBB203F001035B
:108D3000DAB2FB68DA73BB691B7803F00F03DAB2AF
:108D4000FB681A74BB680A331B781B09DAB2FB682C
:108D50009A74FB68BA79DA74FB6897F844201A753C
:108D6000FB6897F848205A75002387F83530FB795F
:108D70000D2B25D1BB6AB3F5803F12D3FB68586831
:108D8000BB6A3D4AA2FB03239B099BB21A460E21F4
:108D900014F034FD0346FB86FB8E002B10D0FB8EB7
:108DA00066E0FB685B68BA6A92B20D21184614F05F
:108DB00025FD0346FB86FB8E002B01D0FB8E57E082
:108DC000F86806F0C1FB0346FB86FB8E002B01D042
:108DD000FB8E4DE0FB685868FB689B8B1A460721A9
:108DE00014F00CFD0346FB86FB8E002B01D0FB8E9E
:108DF0003EE0FB790D2B3AD1BB680C331B781B0985
:108E000087F8353097F835300F2B02D1002387F8DB
:108E1000353097F835304FF4977202FA03F33F3349
:108E2000FB62FB6AB3F5803F12D3FB685868FB6AAC
:108E3000114AA2FB03239B099BB21A46012114F09D
:108E4000BCFD0346FB86FB8E002B10D0FB8E0FE093
:108E5000FB685B68FA6A92B20021184614F0ADFD17
:108E60000346FB86FB8E002B01D0FB8E00E0002327
:108E700018463837BD4680BDD34D6210FFFFFFFF57
:108E8000B0B5B6B000AF78600B467B8013463B8030
:108E90000023A7F8D2300023C7F8CC300023C7F84E
:108EA000D4304FF00003C7F8C83007F10C03B922E3
:108EB000002118461EF018FDB9237B81282387F86E
:108EC000C7307B880C2B00F2098201A252F823F0F4
:108ED000058F2000958F200033912000DD92200027
:108EE000DD922000DD9220000D922000DD92200016
:108EF000DD922000DD922000DD922000DD92200036
:108F0000C39120003B88002B26D16FF48073C7F8F3
:108F1000CC30D7F8CC100F20F7F7AEFD0346A7F8FA
:108F2000D230B7F8D230002B02D0B7F8D230D6E129
:108F30006FF00203C7F8CC30D7F8CC102520F7F734
:108F40009BFD0346A7F8D230B7F8D230002B00F0D3
:108F5000BC81B7F8D230C2E14FF480710F20F7F72F
:108F600097FD0346A7F8D230B7F8D230002B02D0D5
:108F7000B7F8D230B3E102212520F7F789FD034687
:108F8000A7F8D230B7F8D230002B00F09E81B7F8A6
:108F9000D230A4E13B88002B40F085806FF00103C4
:108FA000C7F8CC30D7F8CC101220F7F765FD034690
:108FB000A7F8D230B7F8D230002B02D0B7F8D230B1
:108FC0008DE17B6893F82930012B40F0808107F117
:108FD0000A0207F10C031946802012F07BFA0346BF
:108FE000A7F8D230B7F8D230002B02D0B7F8D23081
:108FF00075E197F8C7305A1C87F8C720D8333B442F
:1090000013F8CC3C212B40F0628197F8C7305A1CF2
:1090100087F8C720D8333B4413F8CC3CC7F8CC3092
:1090200097F8C7305A1C87F8C720D8333B4413F849
:10903000CC3C1B021A46D7F8CC301343C7F8CC30CF
:1090400097F8C7305A1C87F8C720D8333B4413F829
:10905000CC3C1B041A46D7F8CC301343C7F8CC30AD
:1090600097F8C7305A1C87F8C720D8333B4413F809
:10907000CC3C1B061A46D7F8CC301343C7F8CC308B
:10908000D7F8CC3003F4C03319462120F7F700FDA0
:109090000346A7F8D230B7F8D230002B00F0178182
:1090A000B7F8D2301BE16FF00103C7F8D430D7F81E
:1090B000D4101220F7F7E0FC0346A7F8D230B7F837
:1090C000D230002B02D0B7F8D23008E10123C7F824
:1090D000D4307B6893F82930062B05D1D7F8D430EB
:1090E00043F00403C7F8D430D7F8D4101220F7F7B0
:1090F000CFFC0346A7F8D230B7F8D230002B02D00D
:10910000B7F8D230EBE07B6893F82930012B40F0C0
:10911000DE806FF4C0312120F7F7AEFC0346A7F8DC
:10912000D230B7F8D230002B00F0D180B7F8D2306F
:10913000D5E03B88002B13D16FF00103C7F8CC308A
:10914000D7F8CC103120F7F797FC0346A7F8D230B8
:10915000B7F8D230002B00F0BC80B7F8D230BEE0B8
:109160006FF00403C7F8D430D7F8D4103120F7F7E4
:1091700083FC0346A7F8D230B7F8D230002B02D0D8
:10918000B7F8D230ABE00123C7F8D4307B6893F84E
:109190002930062B05D1D7F8D43043F00403C7F8A3
:1091A000D430D7F8D4103120F7F772FC0346A7F873
:1091B000D230B7F8D230002B00F08B80B7F8D23025
:1091C0008DE07B6893F82930042B40F084803B8845
:1091D000002B0DD1FF210B2012F069F90346A7F8EF
:1091E000D230B7F8D230002B75D0B7F8D23076E055
:1091F000FF210A2012F05BF90346A7F8D230B7F836
:10920000D230002B67D0B7F8D23068E07F23C7F8A0
:10921000CC303B88C7F8D430D7F8D430002B45D0B9
:10922000D7F8D4000FF0E6FD034618460FF072FAA7
:109230002DA3D3E900230FF0C5FA02460B461446CE
:109240001D46D7F8CC000FF0D5FD034618460FF0A9
:1092500061FA02460B46204629460FF0DDFB024626
:109260000B46104619460FF0BFFC0346C7F8C8303E
:10927000D7F8C8000FF0DCFF0346C7F8D430D7F8A2
:10928000D4301B02D7F8CC201343C7F8CC30D7F822
:10929000CC103220F7F7ECFB0346A7F8D230B7F832
:1092A000D230002B19D0B7F8D23018E0D7F8CC1054
:1092B0003220F7F7DDFB0346A7F8D230B7F8D230FB
:1092C000002B0AD0B7F8D23009E000BF06E000BF9B
:1092D00004E000BF02E000BF00E000BF002318462A
:1092E000D837BD46B0BD00BF1F85EB51B81E2B401F
:1092F000B0B58CB002AF78600B467B8013463B80E4
:1093000000237B6100237B6200233B624FF000035C
:10931000FB6100233B610023BB817B6893F829300C
:10932000FF2B03D140F2252300F09ABE7B8848F240
:109330005002934200F0038248F25002934200F33D
:10934000668648F21302934200F0558648F21302F3
:10935000934200F35C865E2B00F3C880002BC0F2C2
:1093600056865E2B00F2538601A252F823F000BF0E
:109370005D972000CD972000CD97200033982000E6
:109380000FA02000979820009F972000E5982000CC
:109390000FA02000E9952000079620000FA02000D4
:1093A0005D972000DD992000379A200081962000EB
:1093B0000FA020000FA020000FA02000939C2000F1
:1093C000A79C2000F99C20000FA02000D99D200020
:1093D0007D9E20000FA020000FA020000FA02000E5
:1093E0000FA020000FA020000FA020000FA0200041
:1093F000AF9A20000FA020000FA020000FA0200097
:109400000FA020000FA020000FA020000FA0200020
:109410000FA020000FA020000FA020000FA0200010
:109420000FA020000FA02000A7992000FB9420008F
:10943000079520000FA020000FA0200045952000D8
:109440009D952000019720000FA020000FA0200074
:109450000FA020000FA020000FA020000FA02000D0
:109460000FA020000FA020000FA020000FA02000C0
:109470000FA020000FA020000FA020000FA02000B0
:109480000FA020000FA020000FA020000FA02000A0
:109490000FA020000FA020000FA020000FA0200090
:1094A0000FA020000FA020000FA020000FA0200080
:1094B0000FA020003D9F20000FA02000C19B200096
:1094C0000FA02000399C200061962000579F2000AB
:1094D0000FA020000FA02000319720000FA0200037
:1094E000919A2000AF9C2000079B200048F21002B8
:1094F000934200F05B8500F08ABD7B683A88A3F850
:109500005C2000F0ACBD07F10E0307F10C0207F17F
:109510001001786818F026FE03467B837B8B002BB6
:1095200002D07B8B00F09CBD7B681B8A3A889A42F4
:1095300003D34FF4017300F093BD7B683A88DA825D
:1095400000F08DBD07F10E0307F10C0207F11001C9
:10955000786818F0D8FD03467B837B8B002B02D004
:109560007B8B00F07DBD7B681B893A889A4203D9CA
:109570004FF4017300F074BD7B6893F82730012B22
:1095800007D07B6893F86130012B02D13B8801330F
:109590003B807B683A885A8100F061BD07F10E0379
:1095A00007F10C0207F11001786818F0ACFD0346D2
:1095B0007B837B8B002B02D07B8B00F051BD7B68C3
:1095C000B3F85C207B681B899A4203D34FF4017384
:1095D00000F046BD3B697A68B2F85C2013443A88D3
:1095E000D2B21A7000F03BBD3A887B881946786881
:1095F00018F025FE03467B837B8B002B00F00A8549
:109600007B8B00F02DBD3A887B881946786818F06E
:10961000F2FE03467B837B8B002B02D07B8B00F01A
:109620001FBD7B68B3F84E30DBB2002B00F0F48432
:109630007B887A681C335B0013449B88DBB2002B69
:1096400040F0EA84462206217868FFF719FC0346B9
:109650007B837B8B002B00F0DF847B8B00F000BDD5
:109660003B88012B06D03B88002B03D040F22123FE
:1096700000F0F6BC3B88DAB27B689A7000F0EFBC71
:109680007B887A681C335B0013449B883A889A4233
:1096900000F0C4847B6893F82930042B08D07B68E1
:1096A00093F82930062B03D040F2252300F0D8BCD4
:1096B0007B6893F82930042B06D13B88002B03D01C
:1096C00040F2232300F0CCBC7B68B3F84E30DBB211
:1096D00099B27B68B3F85030DBB29AB23B887868B5
:1096E00006F00EFE03467B837B8B002B02D07B8B28
:1096F00000F0B6BC7B683A88A3F85A2000F08EBC14
:109700003B88002B02D1002300F0AABC7B68012219
:10971000DA7001F043FE3B88184601F04DFE034627
:109720007B837B8B002B00F07B847B8B00F098BCD1
:109730003B88DAB27B6883F82E2000F090BC3B882F
:10974000002B05D17B68002283F8262000F087BC1F
:109750007B68012283F8262000F081BC7B887A6830
:109760001C335B0013449B883A889A4200F05A8469
:109770003A887B8819467868FFF782FB03467B832B
:109780007B8B002B02D07B8B00F06ABC7B887A68D5
:109790001C335B0013443A889A8000F043BC3A883B
:1097A0007B8819467868FFF76BFB03467B837B8BCE
:1097B000002B02D07B8B00F053BC7B887A681C3373
:1097C0005B0013443A889A8000F049BC7B6893F8A8
:1097D0002E30012B16D17B887A681C335B00134432
:1097E0009B883A889A421BD03A887B8819467868C9
:1097F000FFF746FB03467B837B8B002B10D07B8BD4
:1098000000F02EBC3A887B8819467868FFF738FB51
:1098100003467B837B8B002B02D07B8B00F020BC2C
:109820007B887A681C335B0013443A889A8000F086
:1098300016BC7B887A681C335B0013449B883A888B
:109840009A4200F0F1833B88072B03D940F2212391
:1098500000F006BC6FF4E0216A20F7F70DF903462B
:109860007B837B8B002B01D07B8BF9E33B881B0434
:1098700019466A20F7F70CF903467B837B8B002B94
:1098800001D07B8BECE37B887A681C335B0013444C
:109890003A889A80C8E37B887A681C335B0013445B
:1098A0009B883A889A4200F0C1833B88072B02D9F3
:1098B00040F22123D4E33B8800930323382225215F
:1098C000786818F0F3FD03467B837B8B002B01D077
:1098D0007B8BC5E37B887A681C335B0013443A8832
:1098E0009A80A3E37B887A681C335B0013449B88CF
:1098F0003A889A4200F09C834FF00003FB617F237B
:109900003B623B887B627B6A002B39D0786A0FF020
:1099100071FA034618460EF0FDFEA7A3D3E9002313
:109920000EF050FF02460B4614461D46386A0FF0F3
:1099300061FA034618460EF0EDFE02460B4620463D
:1099400029460FF069F802460B46104619460FF0FB
:109950004BF90346FB61F8690FF06AFC03467B6232
:109960007B6A1B023A6A13433B62396A1120F7F79C
:109970007FF803467B837B8B002B0CD07B8B6FE3C4
:10998000396A1120F7F774F803467B837B8B002B31
:1099900001D07B8B64E37B887A681C335B001344C3
:1099A0003A889A8044E33B88002B00F043837B682D
:1099B00093F82C30012B40F03D836FF00201002022
:1099C000F7F75AF803467B837B8B002B01D07B8B08
:1099D00046E37B68002283F82C202BE37B887A689F
:1099E0001C335B0013449B883A889A420AD17B68F7
:1099F00093F82A30002B05D17B6893F82E30012B89
:109A000000F01A833B8800221946786806F020FF90
:109A100003467B837B8B002B01D07B8B20E37B88F1
:109A20007A681C335B0013443A889A807B68002272
:109A300083F82A2000E37B887A681C335B00134498
:109A40009B883A889A420AD17B6893F82A30012B86
:109A500005D17B6893F82E30012B00F0EF823B8814
:109A600001221946786806F0F3FE03467B837B8B60
:109A7000002B01D07B8BF3E27B887A681C335B0080
:109A800013443A889A807B68012283F82A20D5E221
:109A90003B88012B05D03B88002B02D040F22123CC
:109AA000DEE23B88DAB27B6883F86120D7E23B884C
:109AB000012B10D13B88DAB27B6883F8282008217B
:109AC0000820F6F7E5FF03467B837B8B002B00F035
:109AD000B7827B8BC4E23B88002B11D13B88DAB282
:109AE0007B6883F828206FF008010820F6F7C4FF90
:109AF00003467B837B8B002B00F0A2827B8BAFE243
:109B000040F22123ACE23B88DAB27B6883F82F2055
:109B10003B88012B42D100237B6107F114031946D6
:109B2000032001F0E3FC03467B837B8B002B01D0F9
:109B30007B8B95E27B6903F440637B617B6893F8E0
:109B40002E30032B06D07B6943F4837343F001036B
:109B50007B6105E07B6943F4817343F001037B6122
:109B60007B6919460320F6F783FF03467B837B8BD3
:109B7000002B01D07B8B73E27B6893F82930012B9B
:109B800040F0608202212120F6F782FF03467B83AA
:109B90007B8B002B00F056827B8B61E26FF0010122
:109BA0000320F6F769FF03467B837B8B002B00F0D5
:109BB00049827B8B54E200BF1F85EB51B81E2B40BE
:109BC0003B88012B1BD17B68012283F82B200421C9
:109BD0000820F6F75DFF03467B837B8B002B01D0CB
:109BE0007B8B3DE26FF080413F20F6F745FF034657
:109BF0007B837B8B002B00F027827B8B30E27B68A2
:109C0000002283F82B206FF004010820F6F734FFC0
:109C100003467B837B8B002B01D07B8B20E24FF0B4
:109C200080413F20F6F734FF03467B837B8B002B7C
:109C300000F00A827B8B13E23B88012B05D03B8826
:109C4000002B02D040F221230AE23B88012B0FD1E6
:109C500001210020F6F71CFF03467B837B8B002B42
:109C600001D07B8BFCE17B68012283F82D20F6E19B
:109C70006FF001010020F6F7FFFE03467B837B8B2C
:109C8000002B01D07B8BEBE17B68002283F82D2039
:109C9000E5E13B88002B02D140F22123E0E17B6823
:109CA0003A88DA83DBE17B683A881A84D7E13B881B
:109CB000012B05D03B88002B02D040F22123CFE1BD
:109CC0003B88012B0CD16FF010010F20F6F7D4FE6A
:109CD00003467B837B8B002B00F0B8817B8BBFE13D
:109CE00010210F20F6F7D4FE03467B837B8B002BDD
:109CF00000F0AC817B8BB3E17B6893F82930042BB7
:109D000007D07B6893F82930062B02D040F2252338
:109D1000A6E13B88072B15DC062B0BDA002B14D0B1
:109D2000052B0FD17B6893F82930042B0FD040F21C
:109D3000212395E17B6893F82930062B09D040F266
:109D400021238DE140F223238AE100BF02E000BF1E
:109D500000E000BF3B88002B03D16FF013037B6250
:109D600002E06FF003037B62796A0F20F6F784FE4E
:109D700003467B837B8B002B01D07B8B70E1002320
:109D80003B623B88072B0CD0072B0DDC052B02D048
:109D9000062B03D008E003233B6206E001233B626D
:109DA00003E002233B6200E000BF3B6A03F00303D1
:109DB0007B623B6A1B0103F010037A6A13437B62E8
:109DC000796A0F20F6F764FE03467B837B8B002BBA
:109DD00000F03E817B8B43E13A8840F2031313404D
:109DE000002B02D140F221233AE100233B62002301
:109DF0007B613B8803F00203002B03D07B6943F0B7
:109E000004037B613B8803F48073002B04D03B6A1E
:109E100043F002033B6203E07B6943F002037B6192
:109E20007B6893F82930062B0CD13B8803F00203A2
:109E3000002B07D07B6943F038037B613B6A43F01A
:109E400018033B627B69DB437B62796A1220F6F779
:109E500013FE03467B837B8B002B01D07B8BFFE0C3
:109E60003B6A7B62796A1220F6F712FE03467B8317
:109E70007B8B002B00F0EE807B8BF1E03B8840F287
:109E80008A22934202D940F22123E9E03A887B6892
:109E90009A614FF00003FB617F233B623B884FF4E4
:109EA0007A7202FB03F37B627B6A002B3AD0786AFA
:109EB0000EF0A0FF034618460EF02CFC6AA3D3E96F
:109EC00000230EF07FFC02460B4614461D46386AFE
:109ED0000EF090FF034618460EF01CFC02460B469F
:109EE000204629460EF098FD02460B4610461946BC
:109EF0000EF07AFE0346FB61F8690FF099F903460C
:109F00007B627B6A1B023A6A13433B62396A112007
:109F1000F6F7AEFD03467B837B8B002B00F09C8025
:109F20007B8B9DE0396A1120F6F7A2FD03467B8307
:109F30007B8B002B00F090807B8B91E03B88194657
:109F4000786806F013FC03467B837B8B002B00F0C4
:109F500085807B8B84E03B88012B05D03B88002BE0
:109F600002D040F221237BE03B88012B1AD14049EB
:109F70006D20F6F77DFD03467B837B8B002B01D0A4
:109F80007B8B6DE04FF400716C20F6F771FD03469A
:109F90007B837B8B002B01D07B8B61E07B68022273
:109FA0009A635CE07B6800229A6358E03B8803F484
:109FB0007F43002B05D0B3F5807F02D040F22123F0
:109FC0004EE000BF3B88DBB2012B02DC002B03DA42
:109FD0000EE0022B09D00BE07B680022DA667B687A
:109FE0003A88A3F86A2000BF39E040F2232337E023
:109FF00040F2212334E03B88052B02D940F2212393
:10A000002EE03B88DAB27B6883F8702027E040F2CC
:10A01000232325E000BF22E000BF20E000BF1EE0B8
:10A0200000BF1CE000BF1AE000BF18E000BF16E050
:10A0300000BF14E000BF12E000BF10E000BF0EE060
:10A0400000BF0CE000BF0AE000BF08E000BF06E070
:10A0500000BF04E000BF02E000BF00E000BF00233B
:10A0600018462837BD46B0BD1F85EB51B81E2B40A2
:10A070000380610080B500AF0A4A0A49D820F6F78C
:10A08000FFFC084A0749D920F6F7FAFC054A0549BA
:10A09000DA20F6F7F5FC034A0249DB20F6F7F0FC7C
:10A0A00000BF80BD0C00010080B582B000AF02F09F
:10A0B000E7F802F05FF9B81D02230122BE21F6F78E
:10A0C0009BFC0346FB71FB79002B05D0284B294AEA
:10A0D0005C21294809F0ECFEBB79012B12D0012349
:10A0E000BB71B81D02230122BE21F6F78DFC034689
:10A0F000FB71FB79002B05D01D4B1E4A61211E48C8
:10A1000009F0D6FEB81D02230122BD21F6F774FC2A
:10A110000346FB71FB79002B05D0154B154A6621D0
:10A12000154809F0C5FEBB79012B12D00123BB7184
:10A13000B81D02230122BD21F6F766FC0346FB7120
:10A14000FB79002B05D00A4B0A4A6B210A4809F01B
:10A15000AFFE11F0D7F80921002003F031F803F029
:10A1600011F80346054A136000BF0837BD4680BD9D
:10A17000247F2200B8922200447F22000030002079
:10A1800080B483B000AF0346FB7197F90730002B12
:10A190000BDBFB7903F01F02064997F907305B09D7
:10A1A000012000FA02F241F8232000BF0C37BD461F
:10A1B00080BC704700E100E080B582B000AF7860FD
:10A1C000064A7B68136063217320F6F751FC012077
:10A1D000FFF7D6FF00BF0837BD4680BD50380020CE
:10A1E00080B584B000AF0023FB730023BB60002365
:10A1F0007B6007F10800002304220B21F6F7FCFB2B
:10A200003B1D1946402001F071F90346FB73FB7BAF
:10A21000002B01D0FB7B66E07B68002B11D00E2267
:10A220004FF480413F2011F086F80346002B08D000
:10A230001E224FF080413F2011F07DF80346002B95
:10A2400021D1BB68002B1ED002220421082011F06E
:10A2500072F80346002B16D125493F20F6F708FC7B
:10A260000346FB73FB7B002B01D0FB7B3BE0BB6811
:10A2700019464020F6F7FCFB0346FB73FB7B002BE3
:10A2800030D0FB7B2FE07B68002B08D00E224FF4F0
:10A2900080413F2011F04FF80346002B22D1BB68CC
:10A2A000002B1FD002220421082011F044F803469D
:10A2B000002B17D044F23C013F20F6F7D9FB0346B0
:10A2C000FB73FB7B002B01D0FB7B0CE0BB681946CA
:10A2D0004020F6F7CDFB0346FB73FB7B002B01D040
:10A2E000FB7B00E0FB7B18461037BD4680BD00BFFE
:10A2F0003C40004080B58AB002AFF860B9601346B8
:10A30000FB7100237B614FF400416D20F6F7B0FB39
:10A310000346FB77FB7F002B01D0FB7F61E000232E
:10A3200043F6FF720021314811F027F94FF4004144
:10A330006C20F6F79DFB0346FB77FB7F002B01D0DB
:10A34000FB7F4EE00023BB61B9693D20F6F790FB2F
:10A350000346FB77FB7F002B01D0FB7F41E0BB680E
:10A36000C3F31303BB61B9693E20F6F781FB0346D3
:10A37000FB77FB7F002B01D0FB7F32E0FB6843F4CF
:10A38000A07343F00103BB61B9693D20F6F770FB90
:10A390000346FB77FB7F002B01D0FB7F21E0FB799D
:10A3A000012B11D107F11403009341F210034FF078
:10A3B000FF3205210D4801F03BFA0346FB77FB7F96
:10A3C000002B01D0FB7F0CE07B69B3F5805F07D1E8
:10A3D00000F00CFB0346FB77FB7F002B122300E011
:10A3E000002318462037BD4680BD00BF003800203E
:10A3F00080B582B000AF78607B6803F06203002B09
:10A4000007D000234FF480520821044811F088F847
:10A4100000E0FEE70837BD4680BD00BF00380020E1
:10A4200080B500AF002310220821024811F078F80F
:10A4300000BF80BD0038002080B500AF0B4802F09F
:10A440004FF9034683F00103DBB2002B05D0074828
:10A4500002F000F9054811F0F9FA002380220821E2
:10A46000034811F05DF800BF80BD00BF2038002018
:10A470000038002080B500AF0B4802F031F90346E8
:10A4800083F00103DBB2002B05D0074802F0E2F8AD
:10A49000054811F0DBFA002380220821034811F05F
:10A4A0003FF800BF80BD00BF2038002000380020EA
:10A4B00080B582B000AF0023FB710023BB71002385
:10A4C0003B601D4802F00CF9034683F00103DBB248
:10A4D000002B05D0184802F0BDF8174811F0B6FA65
:10A4E000BB1D1846F6F748FA00220721072010F096
:10A4F00022FF0346FB713B461946082000F0F6FF99
:10A500003B6803F00103002B0CD0FB79022B05D82C
:10A51000BB79882B02D0BB79892B03D100216B201A
:10A52000F6F7A6FA002320220821044810F0F8FFCD
:10A5300000BF0837BD4680BD20380020003800200D
:10A5400080B582B000AF786013496D20F6F7A0FAAD
:10A55000124802F07FF8114811F078FA104802F022
:10A56000BFF8034683F00103DBB2002B05D00C4893
:10A5700002F070F80A4811F069FA00216B20F6F732
:10A5800077FA00234FF480620821064810F0C8FFD4
:10A5900000BF0837BD4680BD0200610010380020B2
:10A5A000203800200038002080B582B000AF7860ED
:10A5B0000C496D20F6F76CFA0B4802F04BF80A488C
:10A5C00011F044FA00216B20F6F752FA00234FF401
:10A5D00000620821054810F0A3FF00BF0837BD4600
:10A5E00080BD00BF0100610020380020003800203D
:10A5F00080B584B000AF0023FB730023BB60002351
:10A60000FB8000237B7100233B603B4619463F20C3
:10A6100000F06CFF0346FB73FB7B002B01D0FB7B40
:10A620003CE03B6803F48043002B36D03B6803F0EA
:10A630008043002B31D03B6803F03803002B2CD132
:10A640001849402000F052FF0346FB73FB7B002BB0
:10A6500001D0FB7B22E07B1D1846F6F78DF97B7954
:10A66000BA1D1146184600F01FF80346FB73FB7B2A
:10A67000002B01D0FB7B11E0FB881A46094B1B68BD
:10A680001344BB60B9684020F6F7F2F90346FB7348
:10A69000FB7B002B01D0FB7B00E0FB7B18461037D7
:10A6A000BD4680BDF833002080B584B000AF0346BE
:10A6B0003960FB710023FB730023BB81FB79803B76
:10A6C000122B00F2778101A252F823F019A7200083
:10A6D0003FA7200065A720008BA72000A9A7200086
:10A6E000CFA72000F5A720001BA8200039A8200034
:10A6F0005FA820007DA82000A3A82000C9A82000F2
:10A70000EFA8200015A9200031A9200057A920009A
:10A710007DA9200099A9200007F10C000023012247
:10A720000121F6F769F90346FB73FB7B002B01D08F
:10A73000FB7B57E1BB89DB009BB2BB8147E107F1A3
:10A740000C00002301220121F6F756F90346FB73A2
:10A75000FB7B002B01D0FB7B44E1BB899B009BB2C0
:10A76000BB8134E107F10C00002301220121F6F73F
:10A7700043F90346FB73FB7B002B01D0FB7B31E1EC
:10A78000BB895B009BB2BB8121E107F10C00002378
:10A7900001220121F6F730F90346FB73FB7B002B06
:10A7A00000F00A81FB7B1DE107F10C000023012270
:10A7B0000221F6F721F90346FB73FB7B002B01D046
:10A7C000FB7B0FE1BB89DB009BB2BB81FFE007F1A4
:10A7D0000C00002301220221F6F70EF90346FB7359
:10A7E000FB7B002B01D0FB7BFCE0BB899B009BB279
:10A7F000BB81ECE007F10C00002301220221F6F7F7
:10A80000FBF80346FB73FB7B002B01D0FB7BE9E0ED
:10A81000BB895B009BB2BB81D9E007F10C00002330
:10A8200001220221F6F7E8F80346FB73FB7B002BBD
:10A8300000F0C480FB7BD5E007F10C00002301226F
:10A840000321F6F7D9F80346FB73FB7B002B01D0FD
:10A85000FB7BC7E0BB895B009BB2BB81B7E007F124
:10A860000C00002301220321F6F7C6F80346FB7310
:10A87000FB7B002B00F0A480FB7BB3E007F10C0016
:10A88000002301220421F6F7B7F80346FB73FB7B94
:10A89000002B01D0FB7BA5E0BB891B019BB2BB81D8
:10A8A00095E007F10C00002301220421F6F7A4F83B
:10A8B0000346FB73FB7B002B01D0FB7B92E0BB8943
:10A8C000DB009BB2BB8182E007F10C000023012278
:10A8D0000421F6F791F80346FB73FB7B002B01D0B4
:10A8E000FB7B7FE0BB899B009BB2BB816FE007F1E4
:10A8F0000C00002301220421F6F77EF80346FB73C7
:10A90000FB7B002B01D0FB7B6CE0BB895B009BB227
:10A91000BB815CE007F10C00002301220421F6F763
:10A920006BF80346FB73FB7B002B4BD0FB7B59E0A2
:10A9300007F10C00002301220621F6F75DF803461B
:10A94000FB73FB7B002B01D0FB7B4BE0BB895B00E7
:10A950009BB2BB813BE007F10C00002301220521E3
:10A96000F6F74AF80346FB73FB7B002B01D0FB7B19
:10A9700038E0BB895B009BB2BB8128E007F10C008B
:10A98000002301220621F6F737F80346FB73FB7B11
:10A99000002B19D0FB7B25E007F10C0000230122DE
:10A9A0000521F6F729F80346FB73FB7B002B0DD03E
:10A9B000FB7B17E000BF0AE000BF08E000BF06E035
:10A9C00000BF04E000BF02E000BF00E000BFBB89A1
:10A9D0001A4643F23D6302FB03F39B0A9AB23B68BB
:10A9E0001A80002318461037BD4680BD80B582B05E
:10A9F00000AF0023FB712A4B00221A70294B002262
:10AA00001A70294B00221A60284B00221A7028481D
:10AA100001F066FE034683F00103DBB2002B05D094
:10AA2000234801F017FE224811F010F8214801F0E8
:10AA300057FE034683F00103DBB2002B05D01D480F
:10AA400001F008FE1B4811F001F800216B20F6F719
:10AA50000FF80346FB71FB79002B17497020F6F7BE
:10AA600007F80346FB71FB79002B01D0FB7912E05C
:10AA70006FF001013D20F5F7FFFF0346FB71FB7905
:10AA8000002B6FF001013F20F5F7F6FF0346FB7145
:10AA9000FB79002BFB7918460837BD4680BD00BF07
:10AAA0004C5900204D590020F83300204E59002009
:10AAB00010380020203800200300610080B582B0EB
:10AAC00000AF7420F5F7CCFF786079687520F5F752
:10AAD000CFFF00BE054B1B68002B03D0034B1B6848
:10AAE0007868984700BF0837BD4680BD50380020C1
:10AAF00080B582B000AF0023BB7101F0C5FC03201C
:10AB0000FFF73EFB374B00221A70374B00221A70BA
:10AB1000364B00221A60364B00221A70F5F714FFEC
:10AB2000F5F716FF3348FFF747FB334B334A5A60BC
:10AB3000314B00229A6030492F4800F02DFE034629
:10AB4000BB71BB79002B01D0BB7946E00023FB71C0
:10AB500007E0FB792A4A002142F82310FB790133F0
:10AB6000FB71FB79072BF4D9254B264A9A61264BBA
:10AB70003B603B6803F00303002B01D00D232CE066
:10AB8000F5F7DEFE0346BB71BB79002B01D0BB7924
:10AB900023E03B689B08C3F30D0343F08073194621
:10ABA0006820F5F765FF0346BB71BB79002B01D028
:10ABB000BB7912E015492620F5F75AFF0346BB7111
:10ABC000BB79002B01D0BB7907E0002343F6FF726D
:10ABD0000021094810F0D1FCBB7918460837BD4662
:10ABE00080BD00BF4C5900204D590020F833002093
:10ABF0004E590020F1A3200000380020CC92220002
:10AC00003038002021A42000FC3300200300FF7F07
:10AC100080B592B002AFF860B96011461A460B4693
:10AC2000FB801346BB80002387F83F30002387F862
:10AC300037300023BB6300233B6300233B620023C8
:10AC4000FB610023BB6100237B6100233B61082281
:10AC50000021B86C1CF048FE10F088FB0346012B65
:10AC600003D00A2387F83F300EE2BF497020F5F782
:10AC7000FFFE034687F83F3097F83F30002B032252
:10AC80000821082010F057FB0346002B33D06FF447
:10AC900080710F20F5F7F0FE034687F83F3097F8F4
:10ACA0003F30002B02212520F5F7F2FE034687F8FE
:10ACB0003F3097F83F30002B1B211220F5F7D8FECC
:10ACC000034687F83F3097F83F30002B1B21312097
:10ACD000F5F7CEFE034687F83F3097F83F30002B5C
:10ACE00040F27F311120F5F7C3FE034687F83F306D
:10ACF00097F83F30002B00220721072010F01BFBA4
:10AD0000034687F8373097F83730012B03D897F888
:10AD10003730002B13D100216B20F5F7A9FE034635
:10AD200087F83F3097F83F30002B03216B20F5F771
:10AD30009FFE034687F83F3097F83F30002BFFF720
:10AD40004FFA034687F83F3097F83F30002B022236
:10AD50000421082010F0EFFA0346002B03D0834BA8
:10AD6000834A9A6055E007F110031946002000F06D
:10AD7000BDFB3B6903F08003002B06D07B4B7D4A73
:10AD8000DA61BB6B43F48003BB63784B7A4A1A6089
:10AD9000764B774A9A6007F13000002304220F2196
:10ADA000F5F72AFE3B6B002B33D0BB6B43F48003DB
:10ADB000BB63724801F094FC034683F00103DBB2ED
:10ADC000002B05D06D4801F045FC6C4810F03EFEAC
:10ADD0006A4801F097FB034687F83F3097F83F3009
:10ADE000002B12D13A6B00230093654B012163487D
:10ADF00001F0B8FB034687F83F3097F83F30002B4F
:10AE000007D00F2387F83F303EE10F2387F83F300C
:10AE10003AE1B96B6C20F5F72BFE034687F83F301B
:10AE200097F83F30002B00234FF45A620021554819
:10AE300010F0A3FBFB887B62FF2387F82830524B7E
:10AE4000FB6207F124031946F86800F035F9034660
:10AE500087F83F3097F83F30002B07F1200300932D
:10AE60004FF4ED534FF0FF320521464800F0E0FC6F
:10AE7000034687F83F3097F83F30002B3B6A03F4D6
:10AE80008053002B0BD0FFF7B1FD034687F83F300E
:10AE900097F83F30002B122387F83F30F4E03B6AED
:10AEA00003F4C073002B71D007F110031946002082
:10AEB00000F01CFB3B6903F08003002B03D0002350
:10AEC00087F83F30E0E00023FB610023BB610023F3
:10AED0007B6107F11C031946052000F007FB0346C0
:10AEE00087F83F3097F83F30002B07F118031946D9
:10AEF000062000F0FBFA034687F83F3097F83F3012
:10AF0000002B07F114031946082000F0EFFA03465E
:10AF100087F83F3097F83F30002B7B69FA69194674
:10AF2000B86C10F086FA3B6A03F48073002B03D0F0
:10AF3000042387F83F30A7E0FB69BA691146184639
:10AF400010F028FA034687F83F30BB6C9B88002B33
:10AF500040F09A8097F83F30002B40F095807F2397
:10AF600087F83F3090E000BF0300610430380020D4
:10AF7000B1A4200075A4200039A4200020380020AE
:10AF8000A9A520000038002041A520003B6A03F459
:10AF90004263002B73D002220421082010F0CBF969
:10AFA0000346002B49D03B6A03F02003002B44D01A
:10AFB0000023FB610023BB6100237B6107F11C03BD
:10AFC0001946052000F092FA034687F83F3097F8BB
:10AFD0003F30002B07F118031946062000F086FACF
:10AFE000034687F83F3097F83F30002B07F11403F2
:10AFF0001946082000F07AFA034687F83F3097F8A0
:10B000003F30002B7B69FA691946B86C10F011FAD1
:10B01000FB69BA691146184610F0BCF9034687F877
:10B020003F30BB6C9B88002B2DD197F83F30002B15
:10B0300029D17F2387F83F3025E000216B20F5F7E9
:10B0400017FD034687F83F3097F83F30002B4FF449
:10B0500080317020F5F70CFD034687F83F3097F8F4
:10B060003F30002B3B6A03F48063002B03D01A238C
:10B0700087F83F3008E0012387F83F3004E07F2362
:10B0800087F83F3000E000BFBB6C9B88BA889A42CB
:10B0900007D3BB6C9B881A460649B86808F0B8FE0F
:10B0A00002E0042387F83F3097F83F3018464037D6
:10B0B000BD4680BDFC33002080B58AB002AF786009
:10B0C00039600023FB7500233B610023FB600023F4
:10B0D000FB770023BB61A1497020F5F7C9FC03464B
:10B0E000FB75FB7D002B01D0FB7D33E100220121AC
:10B0F000082010F020F90346002B2DD001213F201D
:10B10000F5F7C6FC0346FB75FB7D002B01D0FB7DEC
:10B1100020E1934B00221A70002301220021904865
:10B12000F5F76AFC0346FB75FB7D002B01D0FB7D28
:10B1300010E18B4B1B7803F00103002B08D0FFF7C5
:10B1400057FA0346FB75FB7D002B01D0FB7D01E127
:10B15000BB6943F48033BB6107F1100319466A20D1
:10B1600000F0C4F90346FB75FB7D002B01D0FB7D8D
:10B17000F0E03B6923F4FF5323F01F033B613B687E
:10B180001B68C3F30C023B6913433B613B691946DF
:10B190006A20F5F76DFC0346FB75FB7D002B01D0A3
:10B1A000FB7DD7E07B68DBB203F00303DAB23B68D8
:10B1B0001B68DBB203F00303DBB21344FB77FB7FB6
:10B1C00003F00303DBB2002B02D00123FB7701E085
:10B1D0000023FB777B689B0603F040623B681B689B
:10B1E000C3F30C039908FB7F0B441B041A437B68D1
:10B1F0009B08C3F30D03134319466620F5F738FC8B
:10B200000346FB75FB7D002B01D0FB7DA2E007F11F
:10B210000C00002304220721F5F7EEFBFB68002B4E
:10B2200033D0504801F05CFA034683F00103DBB2EF
:10B23000002B05D04B4801F00DFA4A4810F006FCEF
:10B24000484801F05FF90346002B01D00F2381E04D
:10B25000FB68B3F5801F01D3434BFB60FA683B6882
:10B260009B680021009101213E4801F07BF90346D3
:10B27000002B07D03B4801F0EDF93A4810F0E6FB0F
:10B280000F2367E0374801F0ADF9022204210820BE
:10B2900010F051F80346002B15D034496C20F5F717
:10B2A000E7FB0346FB75FB7D002B01D0FB7D51E0E6
:10B2B00001216D20F5F7DCFB0346FB75FB7D002BC0
:10B2C00020D0FB7D46E0BB6943F0806343F003037D
:10B2D00019466C20F5F7CCFB0346FB75FB7D002B74
:10B2E00001D0FB7D36E0BB69002B0BD14FF48031E0
:10B2F0006D20F5F7BDFB0346FB75FB7D002B01D0F0
:10B30000FB7D27E03B681B79FF2B17D000216B20CA
:10B31000F5F7AEFB0346FB75FB7D002B01D0FB7DF3
:10B3200018E03B681B7919466B20F5F7A1FB034633
:10B33000FB75FB7D002B01D0FB7D0BE00C216B200E
:10B34000F5F796FB0346FB75FB7D002B01D0FB7DDB
:10B3500000E0002318462037BD4680BD0300610091
:10B360004E59002010380020FFFF0F00020001049A
:10B3700080B584B002AF786039603B68009343F6D3
:10B38000FF737A680521044800F052FA0346DBB2E5
:10B3900018460837BD4680BD0038002080B500AF94
:10B3A000002343F6FF720021024810F0E6F800BFC8
:10B3B00080BD00BF0038002080B584B000AF0346D8
:10B3C000FB800023FB7340F24C53BB60FB88BA68E0
:10B3D00002FB03F30A4AA2FB03235B09BB600022C2
:10B3E000B9680020FEF786FF0346FB73FB7B002B4A
:10B3F00001D0FB7B00E0FB7B18461037BD4680BDCB
:10B400001F85EB5180B586B000AF03460A46FB713D
:10B410001346BB80FB79002B04D0FB79012B01D0B4
:10B42000142357E0BB88002B01D1002352E0FB79A5
:10B43000012B2FD14CF60873FB603C233B611AE0D3
:10B44000BB88A3F59A43483BBB80FB68234AA2FB19
:10B4500003239B0944F6485202FB03F37B6101225C
:10B4600079693869FEF746FF0346FB72FB7A002BC9
:10B4700001D0FB7A2EE0BB8844F648529342DFD8D5
:10B48000BB88FA681549A1FB0212920902FB03F37B
:10B490007B6112E0124BFB6000233B61FB68114AA9
:10B4A000A2FB03235B0B7B61BB887A6902FB03F37E
:10B4B0000D4AA2FB03235B097B610122796938698C
:10B4C000FEF718FF0346FB72FB7A002B01D0FB7AD4
:10B4D00000E0FB7A18461837BD4680BDD34D621098
:10B4E000C0E8CE005917B7D11F85EB5180B584B0A5
:10B4F00000AF03463960FB800023FB73FB881846CE
:10B50000F5F7AEFA02463B681A603B681B68054ACD
:10B51000934201D11423FB73FB7B18461037BD46C1
:10B5200080BD00BFADDEBAAB80B584B000AF0023F4
:10B53000FB600023BB6000237B6000233B6007F1BE
:10B54000080319466F20FFF7D1FF07F10C031946D6
:10B550006E20FFF7CBFFFA68BB681340FB60FB6807
:10B5600019467020F5F784FAFB6803F00113002BED
:10B5700022D0774B1B7803F00103002B1CD0744BB7
:10B5800000221A703B1D19463F20FFF7AFFF7B6872
:10B5900003F48043002B0FD07B6803F08043002B23
:10B5A0000AD07B6803F03803002B05D1694B1B6878
:10B5B00019464020F5F75CFAFB6803F48003002B82
:10B5C00021D0FB6823F48003FB603B461946002032
:10B5D000FFF78CFF3B6803F08003002B07D05E4B26
:10B5E000DB69002B0FD05C4BDB6998470BE05B48B5
:10B5F00001F076F8034683F00103DBB2002B02D0A2
:10B60000564800F0EFFFFB6803F40013002B03D053
:10B61000FB6823F40013FB60FB6803F00203002BBC
:10B620001DD0FB6823F00203FB6002216D20F5F7BB
:10B630001FFA4B4801F054F8034683F00103DBB2D4
:10B64000002B05D0464801F005F8454810F0FEF9FA
:10B65000414B5B68002B02D03F4B5B689847FB680F
:10B6600003F48073002B0AD0FB6823F48073FB6023
:10B67000394B1B69002B02D0374B1B699847FB687D
:10B6800003F40073002B05D0002304220821354861
:10B690000FF046FFFB6803F00103002B0FD0FB689F
:10B6A00023F00103FB604FF4C2016D20F5F7E0F9D0
:10B6B000294B1B68002B02D0274B1B689847FB685F
:10B6C00003F08063002B0ED0FB6823F08063FB60E7
:10B6D00025496D20F5F7CCF900234FF4807208213D
:10B6E00020480FF01DFFFB6803F48033002B0ED0C1
:10B6F000FB6823F48033FB601C496D20F5F7B8F933
:10B70000154B9B68002B02D0134B9B689847FB6836
:10B71000002B03DAFB6823F00043FB60FB6803F4B3
:10B720000043002B0FD0FB6823F40043FB604FF471
:10B7300000416D20F5F79CF9074B9B69002B02D067
:10B74000054B9B69984700BF1037BD4680BD00BFC1
:10B750004E590020F83300203038002020380020D7
:10B760001038002000380020010061040100610051
:10B7700080B500AF054B00221A70054B00221A60FD
:10B78000044800F0EBF80346184680BD4F590020EE
:10B790006838002041B9200080B584B000AF7860DF
:10B7A00039600023FB607B68002B02D03B68002BD4
:10B7B00002D14FF2270333E01B4B196807F10C034A
:10B7C000052218460FF005FF0346002B09D0164B43
:10B7D000196807F10C03052218460FF0FAFE03461C
:10B7E0001EE0FB68114A002142F82310FB68012289
:10B7F00002FA03F31A460C4B1B6813430A4A136000
:10B80000FB689B00094A1A447B681A60FB689B002E
:10B81000064A1A443B681A60FA683B68DA600023FB
:10B8200018461037BD4680BD6838002054380020C7
:10B8300080B586B000AFF8607A603B600B46FB7263
:10B84000FB68002B03D0FB681B68002B02D14FF272
:10B8500027036FE00123FB827B68B3F1FF3F02D037
:10B86000786800F0DFF80FF0E3FEFB7A03F00203E4
:10B87000002B07D0FB681B681A683B6813403A68C6
:10B880009A4210D0FB7A03F00203002B06D1FB682A
:10B890001B681A683B681340002B04D1274B1B78A8
:10B8A000DBB2002B09D00FF0CBFE244B1B78DBB2B0
:10B8B000012B07D00023FB8204E00FF0C1FE0FF044
:10B8C000C7FED0E700BF7B68B3F1FF3F01D000F0B7
:10B8D000D9F81A4B00221A700FF0AAFE3B6A002B0F
:10B8E00004D0FB681B681A683B6A1A60FB7A03F095
:10B8F0000403002B0AD0FB681B681A683B681340DE
:10B90000D943FB681B681A680A401A600FF098FE5A
:10B91000FB8A002B0DD0FB8A03F47F43002B08D158
:10B92000FB8ADBB29BB26FEA03536FEA13539BB2FD
:10B9300000E0FB8A18461837BD4680BD4F590020ED
:10B9400080B500AF00F09EF8034B01221A700FF093
:10B9500086FE00BF80BD00BF4F59002080B483B079
:10B9600000AF78600C4A7B6813600C494FF000020E
:10B970004FF00003C1E90023094B0A4A1A600A4B41
:10B9800000221A60084B00225A60002318460C3728
:10B99000BD4680BC704700BF6C380020F0330020EB
:10B9A0007038002040A5AE0210E000E090B400AF77
:10B9B000194B00221A60194BD3E90023B2F1807FA2
:10B9C00073F100030ED3154BD3E90023144C101967
:10B9D00043F1FF31114BC3E900010F4B6FF07F4280
:10B9E0005A600EE00D4BD3E9002313460A4A23F0B8
:10B9F0007F43536009494FF000024FF00003C1E953
:10BA00000023054B00229A60034B07221A6000BFF7
:10BA1000BD4690BC704700BF10E000E0F03300204E
:10BA2000010000FF2DE9B04382B000AF7860796873
:10BA30000020884681461149096800200A460346CD
:10BA400002FB09F008FB03F10144A8FB02454B1976
:10BA50001D464FF47A724FF00003204629460DF040
:10BA600007FC02460B460649C1E90023FFF79EFF8B
:10BA7000002318460837BD46BDE8B0837038002063
:10BA8000F033002080B400AF054B00221A60044B55
:10BA900000225A6000231846BD4680BC704700BF94
:10BAA00010E000E080B586B000AFF860B9607A6061
:10BAB0003B60FB68002B05D12A4B2B4A80212B4889
:10BAC00008F0F6F9FB68002B01D1042345E0BB68C0
:10BAD000002B05D1264B244A8621244808F0E8F99A
:10BAE000BB68002B01D1042337E0F86827F088FAFF
:10BAF000786120220021B8681BF0F6FEBB683A6A24
:10BB00005A60BB687A6A9A60BB687A681A61BB68D7
:10BB10003A685A61BB6800229A6116497B69FA68E3
:10BB200041F83320134A7B69DB001344BA685A603A
:10BB3000BB6858687B69DB000E4A13441A460E49FD
:10BB400001F04CFABB6898687B69DB00094A134432
:10BB50001A460A4901F042FA002318461837BD4632
:10BB600080BD00BF787F2200D4922200887F22000F
:10BB7000C07F22007438002003B821009BB7210049
:10BB800090B597B006AFF860B9607A60BB68002BDB
:10BB900002D07B68002B05D19F4BA04AB221A04860
:10BBA00008F086F90023FB63BB68002B02D07B689A
:10BBB000002B01D104234CE17B68DB68002B01D111
:10BBC000042346E1F86827F01BFAB863BB689B6959
:10BBD000012B02D14FF4AF533BE1FB68D3F8003E99
:10BBE00043F44032FB68C3F8002EFB68D3F8043EF0
:10BBF00043F00302FB68C3F8042E07F1140300228C
:10BC00001A605A609A60DA601A615A61F86800F046
:10BC100077F97863BB6801229A617B68DA68BB6850
:10BC2000DA610121F8680FF06EFEFB6803F56363CB
:10BC30003B637B685B68002B15D0396B7B685B6866
:10BC40007A68D26807F11400002405940224049451
:10BC5000039200220292002201920093002300220C
:10BC600010F020F813E0396B7B68DB6807F11400F3
:10BC700000220592042204920393002302930023DE
:10BC80000193684B00930023002210F00BF8BB686F
:10BC90009B6807F114021146184601F0BFF9BB6812
:10BCA00001225A70BB689B68184601F0E5F9012132
:10BCB000F8680FF009FEFB6803F562633B637B687D
:10BCC0001B68002B78D07B689B6803F48013002BE3
:10BCD00008D0BB6B9B00544A13447A6B19467868B2
:10BCE0000FF028FD7B689B6803F48013002B47D07E
:10BCF0007B6B1B78072B04D97B68DB68022B04D88D
:10BD00003EE07B68DB68012B3AD9BB6B1B01474ADD
:10BD10009818BB6B9B00444A99183B6B0022059214
:10BD20000122049204220392022202920022019232
:10BD300000930223002201F031F87B681C683B6B02
:10BD40007A68D268013AB96B09013848014407F1B1
:10BD50001400059101210491039200220292002215
:10BD6000019200930023002221460FF09BFFBB6845
:10BD70005B6807F114021146184601F04FF91BE009
:10BD80003B6B7A68D26807F114000021059101210C
:10BD90000491039200220292002201920093002358
:10BDA000002223490FF07EFFBB685B6807F1140295
:10BDB0001146184601F032F9BB6801221A700023BF
:10BDC0003B61FB6803F562630233FB6207F110031A
:10BDD000194678680FF070FC07F110031946786B6C
:10BDE0000FF086FC7B689B6803F48013002B21D046
:10BDF0007B6B1B78072B04D97B68DB68022B04D094
:10BE000018E07B68DB68012B14D13B691A0CFB6AD4
:10BE100092B21A8017E000BFD47F2200F89222006D
:10BE2000887F22008438002088380020E0330020FA
:10BE30007C3800203B6923F480133B613B691A0C7A
:10BE4000FB6A92B21A80BB685B68184601F014F96D
:10BE5000FB6B18464437BD4690BD00BF80B582B02D
:10BE600000AF786039607B68002B06D1154B164A0D
:10BE700040F2DF11154808F01BF83B68002B06D193
:10BE8000134B114A4FF4F071104808F011F83B6859
:10BE90001B7803F00F023B685B781B01DBB21A438F
:10BEA0003B689B781B0203F470631A433B68DB78A2
:10BEB0001B039BB21A437B68C3F8042400BF0837F6
:10BEC000BD4680BDFC7F22004C9322000C802200E6
:10BED0003C80220080B584B000AF78600B46FB70D8
:10BEE000786827F08DF8F860044AFB681344FA7804
:10BEF0001A7000BF1037BD4680BD00BF90380020CB
:10BF000080B584B000AF7860786827F079F8F86081
:10BF1000FB685B00024A134418461037BD4680BDDB
:10BF20008C38002080B582B000AF78607B68002B31
:10BF300005D11E4B1E4A77211E4807F0B9FF182273
:10BF4000002178681BF0D0FC7B6800221A707B68A7
:10BF500001225A707B6800229A707B680022DA7096
:10BF60007B6800221A717B68134A9A607B680722FB
:10BF70001A737B6800225A737B680022DA737B682D
:10BF800000221A747B6800229A737B6800225A741C
:10BF90007B6800229A747B680022DA747B68002236
:10BFA0001A7500BF0837BD4680BD00BF3C80220027
:10BFB000209322007835230020A1070080B588B0A7
:10BFC00000AFF860B9607A600023FB61FB68002B6A
:10BFD00005D0BB68002B02D07B68002B05D15C4BE1
:10BFE0005C4AA6215C4807F063FFFB68002B05D084
:10BFF000BB68002B02D07B68002B01D10423A3E097
:10C00000F86826F0FDFFB861042318460FF02DFCF8
:10C01000FB68D3F8F83F03F0050343F00202FB6826
:10C02000C3F8F82FBB689B687A681946F86800F077
:10C0300097F8F861FB69002B01D0FB6984E0FB688D
:10C04000D3F800347B617B6923F47B6323F00D0319
:10C050007B61BB68DB781B0103F010037A69134333
:10C060007B61BB689B785B0103F020037A69134313
:10C070007B61BB681B79DB0003F008037A6913431B
:10C080007B617B6943F004037B61BB681B78DB0148
:10C09000DBB27A6913437B61BB689B7B03F47063FB
:10C0A0007A6913437B61FB687A69C3F80024BB6833
:10C0B000197B2A4ABB6902F81310BB68597B274ACF
:10C0C000BB695B0013440A465A70FB68D3F8003E14
:10C0D00043F44032FB68C3F8002EFB68D3F8003EFF
:10C0E00043F00302FB68C3F8002EFB68D3F8083E58
:10C0F00023F4E02323F4E0637B61BB68DB7B1B025A
:10C1000003F4E062BB681B7C1B0403F4E0231343CD
:10C110007A6913437B617B6943F003037B61FB68AE
:10C120007A69C3F8082EBB6811331946F868FFF71F
:10C1300095FE0021F868FFF7CDFEBB685B781946D5
:10C14000F8680FF0A2FB002318462037BD4680BDDB
:10C150004C8022003C932200783523008C3800204C
:10C1600080B586B000AFF860B9607A60FB68002BDC
:10C1700005D0BB68002B02D07B68002B06D11F4B7B
:10C180001F4A40F237111F4807F092FEFB68002B50
:10C1900005D0BB68002B02D07B68002B01D10423A3
:10C1A00028E07A6813469B0013445B001A46BB687C
:10C1B000B2FBF3F30533144AA2FB0323DB08013B74
:10C1C0007B617B69B3F5803F02D341F2E35311E019
:10C1D000FB68D3F824341B0C1B04FA68C2F824341F
:10C1E000FB68D3F824247B699BB21A43FB68C3F82D
:10C1F0002424002318461837BD4680BD8C802200B9
:10C200006493220078352300CDCCCCCC80B582B0AD
:10C2100000AF78603960044B1B68396878689847CC
:10C2200000BF0837BD4680BD9838002080B500AFFC
:10C23000034B1B6819460348FFF7E8FF00BF80BDAA
:10C24000943800200020024080B483B000AF034641
:10C25000FB7197F90730002B0BDBFB7903F01F0212
:10C26000064997F907305B09012000FA02F241F80C
:10C27000232000BF0C37BD4680BC704700E100E0C2
:10C2800080B500AFF4F7E8FA0720FFF7DDFF0349B8
:10C29000A520F4F7EDFB00BF80BD00BF1000060431
:10C2A00080B582B000AF00237B600023FB70A42028
:10C2B000F4F7D6FB78607B6803F08063002B0FD027
:10C2C000002010F6F5FE6FF02001D220F4F7D4FB29
:10C2D000274B1B68002B03D0254B1B680020984779
:10C2E0007B6803F4C023002B2CD04FF4C021A62080
:10C2F000F4F7BEFBF4F738FBF81C0023012240F2F0
:10C300004961F4F779FBFB78002B07D00221BA20B2
:10C31000F4F7BEFB0121BB20F4F7BAFB0021082093
:10C32000F4F7B2FAFB78002B04D06FF00101BB20C8
:10C33000F4F7A2FB0E4B1B68002B03D00C4B1B68C1
:10C34000012098477B6803F01003002B07D0084BAF
:10C350001B68002B03D0064B1B68022098477968A6
:10C36000A220F4F785FB00BF0837BD4680BD00BFA3
:10C37000A038002080B582B000AF00237B60F4F7C6
:10C380006FFAA320F4F76CFB7860002301224FF4CE
:10C39000C9611D48F4F730FB7B6803F4C023002B10
:10C3A00014D0194B1B789B089B0003F00C031A4612
:10C3B0000C21D120F4F764FB134B1B789B09DBB2F3
:10C3C0001A460321D120F4F75BFB04E000220F2181
:10C3D000D120F4F755FBC620F4F742FB02460B4B85
:10C3E00013400B4A1360C420F4F73AFB03465B0585
:10C3F00003F07E62064B1B681343054A136000BFBF
:10C400000837BD4680BD00BF505900205F981E0010
:10C410009C38002080B483B000AF0346FB7197F9CD
:10C420000730002B0BDBFB7903F01F02064997F95D
:10C4300007305B09012000FA02F241F8232000BF17
:10C440000C37BD4680BC704700E100E080B483B08B
:10C4500000AF0346FB7197F90730002B0CDBFB792B
:10C4600003F01F02074997F907305B09012000FA22
:10C4700002F2603341F8232000BF0C37BD4680BC78
:10C48000704700BF00E100E090B583B000AF00202E
:10C490000FF066FA00237B600CE0154A7B681344BA
:10C4A00001221A70134A7B68002142F823107B682E
:10C4B00001337B607B68032BEFD90F4C00200FF01A
:10C4C0002AFC03460D4AA2FB03239B0CDBB2194650
:10C4D00020460FF06EFA0020FFF7B8FF00200FF0A3
:10C4E0004FFA074B01221A8000BF0C37BD4690BDA2
:10C4F000A4380020A83800200050004083DE1B43F1
:10C500004459002080B485B000AF78600723FB60F9
:10C510000023BB6019E0114ABB6813441B78002B51
:10C5200010D00E4ABB68134400221A700C49BB6835
:10C530007A6841F82320BB68DAB27B681A7300235B
:10C54000FB6005E0BB680133BB60BB68032BE2D92D
:10C55000FB6818461437BD4680BC7047A4380020DD
:10C56000A838002080B485B000AFF8607A603B60E6
:10C570000B46FB721A4B1B88002B0DD0FB681B7BF4
:10C58000032B09D8164B1B88DBB21A4613461B0532
:10C590009B1A7A689A4201D904231BE0FB68FA7A55
:10C5A0005A73FB7A002B0BD03B68002B06D0FB683C
:10C5B0003A685A60FB68BA699A6001E0042309E0AE
:10C5C000074B1B88DBB21A467B68B3FBF2F2FB68B1
:10C5D0001A60002318461437BD4680BC704700BF60
:10C5E0004459002080B584B000AF78607B681B7B25
:10C5F000FB72FB7A032B02D90423FB6023E0144A6D
:10C60000FB7A194610460FF0E2F91149FB7A7A6875
:10C6100012681B010B441A607B685B7B002B06D001
:10C620000B48FB7A012219460FF0E2F909E000BF3E
:10C63000074AFB7A194610460FF0F7F90346002B1C
:10C64000F6D00023FB60FB6818461037BD4680BD5E
:10C650000050004080B584B000AF78607B681B7BE1
:10C66000FB72FB7A032B02D90423FB6013E00C4A14
:10C67000FB7A194610460FF0AAF90948FB7A002206
:10C6800019460FF0B5F9064AFB7A1B011344002244
:10C690001A600023FB60FB6818461037BD4680BD5A
:10C6A0000050004080B485B000AF78607B681B7B91
:10C6B000032B02D90423FB600AE07B681B7B1A462C
:10C6C000064B012199547B68FF221A730023FB60FB
:10C6D000FB6818461437BD4680BC7047A43800205C
:10C6E00080B483B000AF78607B681B7B032B05D8D8
:10C6F0007B681B7B1A46044B9B5C00E001231846B9
:10C700000C37BD4680BC7047A438002080B584B08B
:10C7100000AF786039603B68002B05D1154B164A95
:10C720004021164807F0C4FB7B681B0CFB817B682B
:10C730001B0ADBB2BB603B681B781A46FB890321EE
:10C740001846F4F79DF93B681B78022B0DD10122A6
:10C75000BB6802FA03F13B685B781A46BB6802FAD1
:10C7600003F31A46BB20F4F78BF900BF1037BD4620
:10C7700080BD00BFD080220094932200E080220080
:10C7800080B582B000AF78600B46FB707B68DBB28F
:10C7900003F00103002B05D10D4B0E4A83210E48F7
:10C7A00007F086FB7B681B0ADBB25B00032202FA00
:10C7B00003F1FA787B681B0ADBB25B0002FA03F331
:10C7C0001A46AE20F4F75CF900BF0837BD4680BDBD
:10C7D00014812200A4932200E080220080B584B05E
:10C7E00000AF78607B68DBB203F00103002B05D15A
:10C7F0000D4B0E4A92210E4807F05AFB0023FB60B6
:10C80000A420F4F72DF9F8607B681B0ADBB2012243
:10C810009A40FB681A407B681B0ADBB222FA03F3DA
:10C8200018461037BD4680BD14812200C0932200F7
:10C83000E080220080B582B000AF78607B68DBB218
:10C8400003F00103002B05D1094B0A4AA2210A4833
:10C8500007F02EFB7B681B0ADBB2012202FA03F30E
:10C860001946A220F4F704F900BF0837BD4680BD81
:10C8700014812200DC932200E080220080B582B087
:10C8800000AF78600B46FB707B68DBB203F00103FE
:10C89000002B05D1104B114AAF21114807F008FBBE
:10C8A000FB78002B0AD07B681B0ADBB2012202FA5C
:10C8B00003F31946A520F4F7DBF809E07B681B0AAF
:10C8C000DBB2012202FA03F31946A620F4F7D0F8EE
:10C8D00000BF0837BD4680BD14812200FC932200B2
:10C8E000E080220080B485B000AF7860396000231A
:10C8F000FB607B68134A934203D1134A3B68136081
:10C9000019E07B68114A934203D10F4A3B68536098
:10C9100011E07B680E4A934203D10B4A3B68936057
:10C9200009E07B680B4A934203D1074A3B68D36016
:10C9300001E00423FB60FB6818461437BD4680BC49
:10C94000704700BF0100BA00B83800200101B900EB
:10C950000102B8000103B70080B500AF034B1B68AC
:10C96000194603480FF07EF800BF80BDB83800209C
:10C970000100BA0080B500AF034B5B68194603485D
:10C980000FF070F800BF80BDB83800200101B90079
:10C9900080B500AF034B9B68194603480FF062F85F
:10C9A00000BF80BDB83800200102B80080B500AFDC
:10C9B000034BDB68194603480FF054F800BF80BDF5
:10C9C000B83800200103B70080B483B000AF03463D
:10C9D000FB7197F90730002B0BDBFB7903F01F028B
:10C9E000064997F907305B09012000FA02F241F885
:10C9F000232000BF0C37BD4680BC704700E100E03B
:10CA000080B483B000AF0346FB7197F90730002B69
:10CA100012DBFB7903F01F020A4997F907305B0923
:10CA2000012000FA02F2203341F82320BFF34F8F98
:10CA300000BFBFF36F8F00BF00BF0C37BD4680BC87
:10CA4000704700BF00E100E080B483B000AF034650
:10CA5000FB7197F90730002B0CDBFB7903F01F0209
:10CA6000074997F907305B09012000FA02F26033A9
:10CA700041F8232000BF0C37BD4680BC704700BF83
:10CA800000E100E080B582B000AF78600B46FB703B
:10CA9000FB78072B05D90D4B0D4AC5210D4807F032
:10CAA00007FAFB787A685B01134403F588731A6808
:10CAB000FB7822F4804279685B010B4403F58873AC
:10CAC0001A6000BF0837BD4680BD00BF3481220018
:10CAD000509422006C81220080B584B000AF786051
:10CAE0000023FB6006E00D4A7B68934206D0FB689A
:10CAF0000133FB60FB68002BF5D000E000BFFB6852
:10CB0000002B05D0064B074A5221074807F0D0F901
:10CB1000FB6818461037BD4680BD00BF00000240CC
:10CB2000A081220014942200C481220080B584B028
:10CB300000AF78600B46FB701346BB70FB78072B89
:10CB400005D9324B324AE721324807F0B1F9BB78B8
:10CB5000002B20D0FB787A685B01134403F58873BF
:10CB60001A68FB7822F4802279685B010B4403F594
:10CB700088731A60FB787A685B01134403F5887345
:10CB80001A68FB7842F0010279685B010B4403F5F7
:10CB900088731A6036E0FB787A685B01134403F50A
:10CBA00088731A68FB7842F4802279685B010B4431
:10CBB00003F588731A604FF48073FB6005E0FB682F
:10CBC000013BFB60FB68002B0BD0FB787A685B01B4
:10CBD000134403F588731B6803F40033002BEED174
:10CBE00000E000BFFB787A685B01134403F58873AB
:10CBF0001A68FB7822F0010279685B010B4403F5A7
:10CC000088731A6000BF1037BD4680BD3481220092
:10CC100028942200C481220080B582B000AF7860E1
:10CC20000B46FB70FB78072B06D9114B114A40F2DB
:10CC30000B11114807F03CF9FB7819467868FFF7AB
:10CC400021FFFB78002219467868FFF76FFFFB7819
:10CC500000221946786800F073F8FB780122194623
:10CC6000786800F06DF800BF0837BD4680BD00BF92
:10CC7000348122003C942200C481220080B584B01B
:10CC800000AF78600B46FB701346BB70FB78072B38
:10CC900006D9284B284A4FF4A271284807F008F912
:10CCA0000023FB60FB78012202FA03F3DBB2BB60D6
:10CCB000BB78052B32D801A252F823F0D5CC200046
:10CCC000E1CC2000EDCC2000F9CC200005CD2000E7
:10CCD00011CD20007B681B68BA681340FB601EE022
:10CCE0007B685B68BA681340FB6018E07B68DB68B0
:10CCF000BA681340FB6012E07B685B69BA68134056
:10CD0000FB600CE07B689B69BA681340FB6006E03F
:10CD10007B68DB69BA681340FB6000E000BFFB681A
:10CD2000002B14BF01230023DBB218461037BD4689
:10CD300080BD00BF3481220070942200C481220093
:10CD400080B582B000AF78600B46FB701346BB70B5
:10CD5000FB78072B06D90E4B0E4A40F275110E4890
:10CD600007F0A6F8BB78002B07D1FB78012202FA66
:10CD700003F3DAB27B689A6006E0FB78012202FADC
:10CD800003F3DAB27B681A6100BF0837BD4680BD85
:10CD90003481220088942200C481220090B58BB097
:10CDA00004AFF860B96011461A460B46FB71134692
:10CDB000BB71FB68002B06D1194B1A4A4FF4CE7198
:10CDC000194807F075F8FB6B002B0CBF01230023FB
:10CDD000DBB297F8304097F82C20B979F8790293B4
:10CDE00097F8383001937B6B009323460EF071FE69
:10CDF00078617B69B3F1FF3F01D104230CE0BA688D
:10CE0000FB681A60BA6AFB685A60FB68FA6B9A6042
:10CE1000FB687A69DA60002318461C37BD4690BD6E
:10CE2000F8812200A4942200C4812200F0B58BB0C6
:10CE300004AFF8600B467A60FB72FB7A072B06D9C9
:10CE4000454B464A4FF4EE71454807F031F87B6890
:10CE5000002B06D1434B414A40F2DD11404807F018
:10CE600027F8FB68DA69FB7A012101FA03F3134022
:10CE7000DBB2002B01D007236AE07B68187A7B685D
:10CE80009C7A7B685D7A7B68DE7A7B681B697A684E
:10CE9000127B7968496900290CBF01210021C9B2C0
:10CEA00002910192009333462A4621460EF011FE6C
:10CEB00078617B69B3F1FF3F01D1042348E0FB7A3D
:10CEC000012202FA03F3DAB2FB689A60FB7A0122CC
:10CED00002FA03F3DAB2FB681A61FB7A7A685269E4
:10CEE000F9685B010B4403F584731A60FB7A7A6876
:10CEF0001268F96808335B010B441A60FB7A7A68A0
:10CF00005268F96808335B010B4404331A60FB7AFA
:10CF1000FA685B01134403F588731B6823F47842B5
:10CF20007B681B7BDB0203F460531A43FB7A42F4F9
:10CF30004042F9685B010B4403F588731A60FB7A81
:10CF4000FA685B01134403F586737A691A6000235B
:10CF500018461C37BD46F0BD34812200BC94220027
:10CF6000C4812200D080220080B584B000AFF86078
:10CF7000B9601346FB71FB68002B06D1124B134AB4
:10CF800040F22621124806F093FFFB79072B06D9C1
:10CF9000104B0E4A40F227210D4806F089FF10225F
:10CFA0000021F8681AF0A0FCFB68BA68DA60FB6838
:10CFB000FA791A72FB790849FA6841F8232000BF10
:10CFC0001037BD4680BD00BF0C822200D4942200E1
:10CFD000C481220034812200C838002080B584B08A
:10CFE00000AFF860B9607A60FB68002B06D1084B8F
:10CFF000084A40F23B21084806F05AFFFB68BA682D
:10D000001A60FB687A685A6000BF1037BD4680BD61
:10D010000C822200E8942200C481220080B582B0F4
:10D0200000AF786039607B68002B06D10E4B0F4A49
:10D0300040F249210E4806F03BFF3B68002B06D129
:10D040000C4B0A4A40F24A21094806F031FF7B683E
:10D05000D8687B681B7A3A681946FFF7E7FE0346F3
:10D0600018460837BD4680BD0C822200FC94220081
:10D07000C4812200D080220080B582B000AF7860E9
:10D080007B68002B06D1094B094A40F2662109480A
:10D0900006F00EFF7B68D8687B681B7A0122194670
:10D0A000FFF744FD00BF0837BD4680BD1C8222004B
:10D0B00014952200C481220080B584B000AF78604E
:10D0C0000023FB7349E0FB7B284A52F82330BB6006
:10D0D000BB68002B3DD0FB7B002219467868FFF728
:10D0E000CDFD0346002B35D0FB7B01221946786825
:10D0F000FFF7C4FD0346002B10D0FB7B002219462E
:10D100007868FFF71DFEBB681B68002B06D0BB6864
:10D110001B68BA6851680122B8689847FB7B0222F5
:10D1200019467868FFF7AAFD0346002B12D0FB7B57
:10D13000012219467868FFF703FEBB681B68002BC5
:10D1400008D0BB681B68BA6851680222B868984763
:10D1500000E000BFFB7B0133FB73FB7B072BB2D9E5
:10D1600000BF00BF1037BD4680BD00BFC8380020DB
:10D1700080B500AF0248FFF79FFF00BF80BD00BF32
:10D180000000024080B582B000AF0023FB70002396
:10D190007B60F81C02230122BE21F3F72DFCFB78F3
:10D1A000012B02D1044B7B6001E0044B7B607B6868
:10D1B00018460837BD4680BD40A5AE02804A5D05D1
:10D1C00080B582B000AF03460A46FB711346BB71BF
:10D1D000BB791846F3F750FBBB790C2B03D1054BF9
:10D1E000054A1A6002E0034B044A1A6000BF083780
:10D1F000BD4680BDE838002080D19D01804A5D0594
:10D2000080B483B000AF78600B46FB707B68002B66
:10D2100003D07B685B68002B02D14EF221532CE0D7
:10D22000FB78042B25D801A252F823F041D220002C
:10D2300055D220005DD2200055D2200065D22000BA
:10D240007B6800225A607B6800221A617B6800229A
:10D250001A7311E07B6801221A730DE07B680022CB
:10D260001A7309E07B6800229A607B6800221A61C9
:10D2700002E04EF2215300E0002318460C37BD4671
:10D2800080BC704780B584B002AF0023FB800823C8
:10D290002E4A10212E4813F041FA0346FB80FB88EA
:10D2A000002B4DD10622012129480FF07EFE0346B6
:10D2B000FB80FB88002B43D100230193254B009377
:10D2C00006230022012122480FF0A0FE0346FB8026
:10D2D000FB88002B34D11E4A50211F4814F065F8FA
:10D2E0000346FB80FB88002B2AD1194A50211B489A
:10D2F00014F05BF80346FB80FB88002B20D1FF2253
:10D30000002117481AF0F0FAFF22154915480EF0CF
:10D310004FFE0346FB80FB88002B11D110211248E1
:10D3200015F0F1FC0346FB80FB88002B08D1082296
:10D330000E490D4810F09CFB0346FB80FB88002B38
:10D34000FB8818460837BD4680BD00BF484C00200A
:10D350006839002004300020C83B0020183C002021
:10D36000B4480020F04B0020683C0020AC4800206E
:10D3700080B582B000AF0023FB802A4A18212A48DA
:10D3800011F0B8FF0346FB80FB88002B45D1254AEE
:10D390002C21264811F0D9FC0346FB80FB88002B8A
:10D3A0003BD1204A1421224811F067F80346FB8044
:10D3B000FB88002B31D11B4A14211E4811F0ABF918
:10D3C0000346FB80FB88002B27D11A4B154A0C2102
:10D3D000194810F069FF0346FB80FB88002B1CD125
:10D3E000104A2021154812F035FE0346FB80FB88C9
:10D3F000002B12D10B4A1C21114810F0D5FF034617
:10D40000FB80FB88002B08D1064A0C210D4811F047
:10D410000AF80346FB80FB88002BFB881846083778
:10D42000BD4680BDF43800207C39002094390020AE
:10D43000C0390020D4390020303A0020103A0020B2
:10D44000E8390020043A002080B588B006AF0023F8
:10D45000FB802B4B1B882B4A128805922A4A049288
:10D4600003932A4B02932A4B01932A4B00932A4B96
:10D470002A4A44212A4815F08EFC0346FB80FB888B
:10D48000002B37D1274B0593254B0493264B039351
:10D490001F4B0293254B01931E4B00931E4B1F4ABB
:10D4A000B421234817F0CEF90346FB80FB88002BFC
:10D4B00020D11F491A4810F080FB0346FB80FB88EF
:10D4C000002B17D1144B0193114B00930023194AE1
:10D4D0002021194818F089F80346FB80FB88002BAF
:10D4E00008D1164A0C21164818F0B8F80346FB80FC
:10D4F000FB88002BFB8818460837BD4680BD00BF5F
:10D50000CC330020CE330020744A0020B4490020E0
:10D51000683C0020C83B002068390020303A0020D9
:10D52000044C0020F4380020F04B0020183C002070
:10D53000683A0020E8390020483A0020043A0020E8
:10D540003C3A002080B586B004AF0023FB80012365
:10D550003B6040F63442002149481AF0C5F9484B77
:10D560001B78002B40F08680FFF78CFE0346FB8083
:10D57000FB88002B52D140F60C030393414B0293DE
:10D5800040F206430193404B0093404B002274212C
:10D590003F4814F0C1FF0346FB80FB88002B01D0FD
:10D5A000FB8868E0FFF7E4FE0346FB80FB88002B66
:10D5B00034D1FFF749FF0346FB80FB88002B2DD1B8
:10D5C000334AAC21334805F005FE0346FB80FB8857
:10D5D000002B23D1304B2E4AC3F85C222E4B2F4A0E
:10D5E000C3F860222C4B2E4AC3F868222A4B2D4ADE
:10D5F000C3F87022284B2C4AC3F86C22264B2B4AC6
:10D60000C3F86422244B2A4AC3F87422224B294AC5
:10D61000C3F87822204B284AC3F87C22FB88002BD1
:10D6200002D010233B6025E0154B01221A70144BE9
:10D6300000225A70124B00221A81114B01229A705B
:10D640000F4B0122DA700E4B00225A710C4B002254
:10D650009A710B4B00221A71094BFF2283F8272C79
:10D660000D4B0022C3F88C20054B082283F8302C88
:10D6700000233B603B6818460837BD4680BD00BFAD
:10D68000783C0020924000208C3C0020683900202B
:10D69000F43800201C3B0020EC3800207C390020AE
:10D6A00094390020C0390020D4390020103A0020DD
:10D6B000E8390020043A00203C3A002080B485B0CC
:10D6C00000AF0346FB800023FB604E4B1B78002B12
:10D6D00000F09180FB8803F47F43B3F5644F00F0C2
:10D6E0008680B3F5644F00F38580B3F5624F78D040
:10D6F000B3F5624F7EDCB3F5614F75D0B3F5614F82
:10D7000078DCB3F5804F69D0B3F5804F72DCB3F5A8
:10D71000005F5AD0B3F5005F6CDCB3F5C05F5AD040
:10D72000B3F5C05F66DCB3F5A85F51D0B3F5A85F71
:10D7300060DCB3F5306F42D0B3F5306F5ADCB3F52F
:10D74000206F39D0B3F5206F54DCB3F5006F39D0BA
:10D75000B3F5006F4EDCB3F5E06F2AD0B3F5E06FA0
:10D7600048DCB3F5C06F21D0B3F5C06F42DCB3F530
:10D77000A06F18D0B3F5A06F3CDCB3F5806F0FD06D
:10D78000B3F5806F36DCB3F5007F03D0B3F5407F8F
:10D7900003D02FE01C4BFB602DE01C4BFB602AE00C
:10D7A0001B4BFB6027E01B4BFB6024E01A4BFB602C
:10D7B00021E01A4BFB601EE0194BFB601BE0194B8C
:10D7C000FB6018E0184BFB6015E0184BFB6012E0A3
:10D7D000174BFB600FE0174BFB600CE0164BFB6038
:10D7E00009E0164BFB6006E00023FB6003E0144BEE
:10D7F000FB6000E000BFFB6818461437BD4680BCE4
:10D80000704700BF783C0020F43800207C390020AD
:10D8100094390020C0390020D4390020303A00204B
:10D82000E8390020043A0020103A0020683A00202D
:10D83000483A00203C3A00201C3B00206839002078
:10D84000683C002080B483B000AF0346FB80FB88B7
:10D85000062B1BD801A252F823F000BF81D820006C
:10D8600085D8200089D820007DD8200081D82000CC
:10D8700085D8200079D820000C2308E0082306E092
:10D88000102304E0182302E0202300E000231846C0
:10D890000C37BD4680BC704780B483B000AF0346F0
:10D8A000FB80FB88052B17D801A252F823F000BF9C
:10D8B000CDD82000D1D82000D5D82000C9D820004C
:10D8C000CDD82000D1D82000082306E0102304E0A2
:10D8D000182302E0202300E0002318460C37BD4641
:10D8E00080BC704780B584B000AF78600B467B8009
:10D8F0000023FB810023FB7207F10B0319467868B4
:10D9000010F06CFA0346FB81FB89002B01D0FB89E8
:10D91000DFE27B88B3F5104F00F05C82B3F5104F67
:10D9200000F3C182B3F5DE4F00F09F82B3F5DE4F06
:10D9300000F3B982B3F5DC4F00F09782B3F5DC4F0A
:10D9400000F3B182B3F5DA4F00F08F82B3F5DA4F0E
:10D9500000F3A982B3F5D84F00F08782B3F5D84F12
:10D9600000F3A182B3F5D64F00F07F82B3F5D64F16
:10D9700000F3998246F68722934200F3948246F69A
:10D980008622934280F2718246F68222934200F010
:10D990006C8246F68222934200F3858246F6851217
:10D9A000934200F0628246F68512934200F37B8236
:10D9B00046F68212934200F0588246F68212934253
:10D9C00000F37182B3F5CE4F00F04F82B3F5CE4F26
:10D9D00000F3698246F28152934200F0468246F299
:10D9E0008152934200F35F82F12B00F3ED81002B13
:10D9F000C0F25982F12B00F2568201A252F823F0B4
:10DA0000D5DD20008FDE2000A7DE2000A7DE20006D
:10DA1000A7DE2000A7DE200023DE200095DE200008
:10DA2000A7DE2000A1DE2000A7DE2000DBDD200035
:10DA3000E1DD2000F3DD2000F9DD20009BDE200089
:10DA4000A7DE2000A7DE2000A7DE2000A7DE200042
:10DA5000A7DE2000A7DE2000A7DE2000A7DE200032
:10DA6000A7DE2000A7DE2000A7DE2000A7DE200022
:10DA70004DDE2000A7DE2000FFDD2000A7DE200015
:10DA8000A7DE2000A7DE2000A7DE2000A7DE200002
:10DA9000A7DE2000A7DE2000A7DE2000A7DE2000F2
:10DAA000A7DE2000A7DE2000A7DE2000A7DE2000E2
:10DAB000A7DE2000A7DE2000A7DE2000A7DE2000D2
:10DAC000A7DE2000A7DE2000A7DE2000A7DE2000C2
:10DAD000A7DE2000A7DE2000A7DE2000A7DE2000B2
